{
  "contractName": "SimpleMultiSig",
  "abi": [
    {
      "constant": true,
      "inputs": [],
      "name": "threshold",
      "outputs": [
        {
          "name": "",
          "type": "uint256"
        }
      ],
      "payable": false,
      "stateMutability": "view",
      "type": "function"
    },
    {
      "constant": true,
      "inputs": [
        {
          "name": "",
          "type": "uint256"
        }
      ],
      "name": "ownersArr",
      "outputs": [
        {
          "name": "",
          "type": "address"
        }
      ],
      "payable": false,
      "stateMutability": "view",
      "type": "function"
    },
    {
      "constant": true,
      "inputs": [],
      "name": "nonce",
      "outputs": [
        {
          "name": "",
          "type": "uint256"
        }
      ],
      "payable": false,
      "stateMutability": "view",
      "type": "function"
    },
    {
      "inputs": [
        {
          "name": "threshold_",
          "type": "uint256"
        },
        {
          "name": "owners_",
          "type": "address[]"
        }
      ],
      "payable": false,
      "stateMutability": "nonpayable",
      "type": "constructor"
    },
    {
      "payable": true,
      "stateMutability": "payable",
      "type": "fallback"
    },
    {
      "constant": false,
      "inputs": [
        {
          "name": "sigV",
          "type": "uint8[]"
        },
        {
          "name": "sigR",
          "type": "bytes32[]"
        },
        {
          "name": "sigS",
          "type": "bytes32[]"
        },
        {
          "name": "destination",
          "type": "address"
        },
        {
          "name": "value",
          "type": "uint256"
        },
        {
          "name": "data",
          "type": "bytes"
        }
      ],
      "name": "execute",
      "outputs": [],
      "payable": false,
      "stateMutability": "nonpayable",
      "type": "function"
    }
  ],
  "bytecode": "0x608060405234801561001057600080fd5b5060405161097b38038061097b83398101806040528101908080519060200190929190805182019291905050506000806005835111158015610053575082518411155b8015610060575060008410155b151561006b57600080fd5b60009150600090505b8251811015610164578173ffffffffffffffffffffffffffffffffffffffff1683828151811015156100a257fe5b9060200190602002015173ffffffffffffffffffffffffffffffffffffffff161115156100ce57600080fd5b60016002600085848151811015156100e257fe5b9060200190602002015173ffffffffffffffffffffffffffffffffffffffff1673ffffffffffffffffffffffffffffffffffffffff16815260200190815260200160002060006101000a81548160ff021916908315150217905550828181518110151561014b57fe5b9060200190602002015191508080600101915050610074565b826003908051906020019061017a92919061018b565b508360018190555050505050610258565b828054828255906000526020600020908101928215610204579160200282015b828111156102035782518260006101000a81548173ffffffffffffffffffffffffffffffffffffffff021916908373ffffffffffffffffffffffffffffffffffffffff160217905550916020019190600101906101ab565b5b5090506102119190610215565b5090565b61025591905b8082111561025157600081816101000a81549073ffffffffffffffffffffffffffffffffffffffff02191690555060010161021b565b5090565b90565b610714806102676000396000f300608060405260043610610062576000357c0100000000000000000000000000000000000000000000000000000000900463ffffffff16806342cde4e814610064578063aa5df9e21461008f578063affed0e0146100fc578063f12d394f14610127575b005b34801561007057600080fd5b50610079610283565b6040518082815260200191505060405180910390f35b34801561009b57600080fd5b506100ba60048036038101908080359060200190929190505050610289565b604051808273ffffffffffffffffffffffffffffffffffffffff1673ffffffffffffffffffffffffffffffffffffffff16815260200191505060405180910390f35b34801561010857600080fd5b506101116102c7565b6040518082815260200191505060405180910390f35b34801561013357600080fd5b50610281600480360381019080803590602001908201803590602001908080602002602001604051908101604052809392919081815260200183836020028082843782019150505050505091929192908035906020019082018035906020019080806020026020016040519081016040528093929190818152602001838360200280828437820191505050505050919291929080359060200190820180359060200190808060200260200160405190810160405280939291908181526020018383602002808284378201915050505050509192919290803573ffffffffffffffffffffffffffffffffffffffff16906020019092919080359060200190929190803590602001908201803590602001908080601f01602080910402602001604051908101604052809392919081815260200183838082843782019150505050505091929192905050506102cd565b005b60015481565b60038181548110151561029857fe5b906000526020600020016000915054906101000a900473ffffffffffffffffffffffffffffffffffffffff1681565b60005481565b60008060008060006001548a511415156102e657600080fd5b88518a511480156102f857508a518a51145b151561030357600080fd5b600260003373ffffffffffffffffffffffffffffffffffffffff1673ffffffffffffffffffffffffffffffffffffffff16815260200190815260200160002060009054906101000a900460ff16151561035b57600080fd5b60197f01000000000000000000000000000000000000000000000000000000000000000260007f010000000000000000000000000000000000000000000000000000000000000002308a8a8a60005460405180887effffffffffffffffffffffffffffffffffffffffffffffffffffffffffffff19167effffffffffffffffffffffffffffffffffffffffffffffffffffffffffffff19168152600101877effffffffffffffffffffffffffffffffffffffffffffffffffffffffffffff19167effffffffffffffffffffffffffffffffffffffffffffffffffffffffffffff191681526001018673ffffffffffffffffffffffffffffffffffffffff1673ffffffffffffffffffffffffffffffffffffffff166c010000000000000000000000000281526014018573ffffffffffffffffffffffffffffffffffffffff1673ffffffffffffffffffffffffffffffffffffffff166c0100000000000000000000000002815260140184815260200183805190602001908083835b6020831015156104fb57805182526020820191506020810190506020830392506104d6565b6001836020036101000a0380198251168184511680821785525050505050509050018281526020019750505050505050506040518091039020945060009350600092505b6001548310156106b0576001858c8581518110151561055a57fe5b906020019060200201518c8681518110151561057257fe5b906020019060200201518c8781518110151561058a57fe5b90602001906020020151604051600081526020016040526040518085600019166000191681526020018460ff1660ff1681526020018360001916600019168152602001826000191660001916815260200194505050505060206040516020810390808403906000865af1158015610605573d6000803e3d6000fd5b5050506020604051035191508373ffffffffffffffffffffffffffffffffffffffff168273ffffffffffffffffffffffffffffffffffffffff161180156106955750600260008373ffffffffffffffffffffffffffffffffffffffff1673ffffffffffffffffffffffffffffffffffffffff16815260200190815260200160002060009054906101000a900460ff165b15156106a057600080fd5b819350828060010193505061053f565b600160005401600081905550600090506000808751602089018a8c5af190508015156106db57600080fd5b50505050505050505050505600a165627a7a72305820a782874b013da54967ff67accc0ea5c92d412005ef947acf1a479be6b32713080029",
  "source": "pragma solidity ^0.4.22;\n\ncontract SimpleMultiSig {\n\n  uint public nonce;                 // (only) mutable state\n  uint public threshold;             // immutable state\n  mapping (address => bool) isOwner; // immutable state\n  address[] public ownersArr;        // immutable state\n\n  // Note that owners_ must be strictly increasing, in order to prevent duplicates\n  constructor(uint threshold_, address[] owners_) public {\n    require(owners_.length <= 5 && threshold_ <= owners_.length && threshold_ >= 0);\n\n    address lastAdd = address(0); \n    for (uint i = 0; i < owners_.length; i++) {\n      require(owners_[i] > lastAdd);\n      isOwner[owners_[i]] = true;\n      lastAdd = owners_[i];\n    }\n    ownersArr = owners_;\n    threshold = threshold_;\n  }\n\n  // Note that address recovered from signatures must be strictly increasing, in order to prevent duplicates\n  function execute(uint8[] sigV, bytes32[] sigR, bytes32[] sigS, address destination, uint value, bytes data) public {\n    require(sigR.length == threshold);\n    require(sigR.length == sigS.length && sigR.length == sigV.length);\n    require(isOwner[msg.sender]);\n\n    // Follows ERC191 signature scheme: https://github.com/ethereum/EIPs/issues/191\n    bytes32 txHash = keccak256(byte(0x19), byte(0), this, destination, value, data, nonce);\n\n    address lastAdd = address(0); // cannot have address(0) as an owner\n    for (uint i = 0; i < threshold; i++) {\n      address recovered = ecrecover(txHash, sigV[i], sigR[i], sigS[i]);\n      require(recovered > lastAdd && isOwner[recovered]);\n      lastAdd = recovered;\n    }\n\n    // If we make it here all signatures are accounted for.\n    // The address.call() syntax is no longer recommended, see:\n    // https://github.com/ethereum/solidity/issues/2884\n    nonce = nonce + 1;\n    bool success = false;\n    assembly { success := call(gas, destination, value, add(data, 0x20), mload(data), 0, 0) }\n    require(success);\n  }\n\n  function () payable public {}\n}\n",
  "sourcePath": "/Users/zzb/simple-multisig/contracts/SimpleMultiSig.sol",
  "compiler": {
    "name": "solc",
    "version": "0.4.24+commit.e67f0147.Emscripten.clang"
  },
  "schemaVersion": "2.0.1",
  "updatedAt": "2018-09-26T07:50:42.159Z"
}